:100000000C9494180C94C5180C94C5180C94C5182D
:100010000C94C5180C94C5180C94C5180C94C518EC
:100020000C94C5180C94C5180C94C5180C94C518DC
:100030000C94C5180C94F5600C94C5180C94C51854
:100040000C94B2620C94C5180C94C5180C94C51885
:100050000C945F620C94C5180C94C5180C9415622E
:100060000C94C5180C94DF610C94B5610C94C51800
:100070000C94C5180C94C5180C94C5180C94B26255
:100080000C94C5180C94C5180C94C5180C945F6298
:100090000C947F610C9455610C94C5180C944163C9
:1000A0000C94C5180C94B2620C94C5180C94C51825
:1000B0000C94C5180C945F620C94B2620C94C51831
:1000C0000C94C5180C94C5180C945F620C94C51858
:1000D0000C94C5180C94C5180C94C5180C94C5182C
:1000E0000C94C5180C947F200C9456330C94631B0D
:1000F0000C947B1B0C944E1B0C94481B0C94F827FF
:100100000C94CD330C946E200C945A1B0C94C13972
:100110000C94751A0C946F200C9470200C94341964
:100120000C945D1B0C94751B0C94521B0C9459334E
:100130000C94612F0C94831B0C94ED280C9492204A
:100140000C94B8190C94D1180C9481330C94CC33C2
:100150000C9465640C947F1B0C94671B0C946D1BB2
:100160000C94C4390C94C6200C94E2290C948D1B79
:100170000C94881B0C94081A0C94E5190C945729BC
:100180000C94711B0C94561B0C94DD1A0C9478295A
:100190000C946D200C9499200C94F4190C94C718AD
:1001A0000C94161A0C94891B0C94A23000407A10FF
:1001B000F35A00A0724E18090010A5D4E80000E818
:1001C0007648170000E40B54020000CA9A3B000076
:1001D00000E1F505000080969800000040420F0005
:1001E0000000A08601000000102700000000E803C6
:1001F000000000006400000000000A000000000091
:100200000100000000002C76D888DC674F0823DF4F
:10021000C1DFAE59E1B1B796E5E3E453C63AE65122
:10022000997696E8E6C28426EB898C9B62ED407C49
:100230006FFCEFBC9C9F40F2BAA56FA5F490055AE5
:100240002AF75C936B6CF9676DC11BFCE0E40D470A
:10025000FEF520E6B500D0ED902E0300943577052D
:100260000080841E080000204E0A000000C80C33E5
:100270003333330F986E12831141EF8D2114893B74
:10028000E65516CFFEE6DB18D1844B381BF77C1DF4
:10029000901DA4BBE424203284725E228100C9F147
:1002A00024ECA1E53D276364696E6F70737578581F
:1002B0005B003E7F037F3E3F001F8EB13F63030321
:1002C00003430C80319BBB0103030303030C8081B8
:1002D000B1BF013E1F030F030C8081B1B50F600356
:1002E0000303030C80B9BFB10163030303430C8014
:1002F000B1B1B1013E7F7F7F3E0C00BFB1B13F0085
:1003000000000000000000000000100000000000DD
:100310001FF0BDF781F7833FF01E1000DC010000E5
:100320003EF8BCF783F7C37FF03E3800DE030000E1
:100330003CF8BCF787F7E3FFF07E3800DF070000EA
:100340007C7CBCF78FF7F3FFF17E7C80DF0F000031
:10035000783CBC879F07F8F1F3F87CC08F0300005E
:10036000F83EBC079FF7FBE0F37EFAC007010000F0
:10037000F01FBC079EF77BC0F37EFEC003000000A9
:10038000F01DBC079EF70300F07EF7C103000000DC
:10039000E00FBC079EF77BC0F33EEFC103000000F7
:1003A000E00BBC079FF7FBE0F38EEFC307010000F3
:1003B000C007BC879F07F8F1F380F7C38F030000E5
:1003C000C007BCF78FF7F3FFF1C0FF87DF0F000016
:1003D0008003BCF787F7E3FFF0C0FB0FDF070000E7
:1003E0008003BCF783F7C37FF0E0FF0FDE0300005C
:1003F0000001BCF781F7833FF0F0011FDC010060D2
:10040000180100000000000000000000000000F0E3
:100410003F0000000000000000000000000000F8A5
:100420007FF3781C0000000000000000000000F8CE
:100430007FFBF93EE0FF3FFC13000000000000B826
:10044000778FD963FCFF3FFEC8000000000000B8B2
:10045000770FF8633F000000361E0000000000B870
:10046000778F79633F000000C93F0000000000B8AB
:1004700077FB793E7F000000F23F0000000000B8EB
:1004800077F3D81CFE010000FC7F0000000000B8DC
:1004900077000000FE1F0000FC7F0000000000B895
:1004A00077000000F0FF0080FF7F0000000000B830
:1004B00077000000C0FF03E0FF7F000000000000A5
:1004C0000000000000FF03FEFF3F000000000000EE
:1004D0000000000000FCC3FFFF3F00000000000020
:1004E0000000003000FEC3FFFF1F000000000000FE
:1004F000000000F0FFFFC3FFFF0700000000000046
:10050000000000F8FFFFE3FF7F0000000000000094
:10051000000000F8FFFFF1FF0F00000000000000E6
:10052000000000F8FF7FF07F0000000000000000E6
:1005300000000000FC0000000000000000000000BF
:1005400000000000000000000000000000000000AB
:100550000000000000000400000000000000000097
:10056000000000803B0004F01EFE030000000000BD
:10057000000000C07B000EF03EFE03000000000003
:10058000000000E0FB000EF07EFE03000000000013
:10059000000000F0FB011FF07EFE030000000000E1
:1005A000000000F871001FF0F800000000000000DB
:1005B000000000F820803EF07EF8000000000000FF
:1005C0000000007800803FF07EF80000000000008E
:1005D0000000007800C07DF07EF800000000000000
:1005E0000000007800C07BF03EF800000000000032
:1005F000000000F820E0FBF00EF800000000000012
:10060000000000F871E0FDF03EF80000000000007E
:10061000000000F0FBF1FFF13CF8000000000000DA
:10062000000000E0FBF0FEF33CF8000000000000DA
:10063000000000C07BF8FFF378F800000000000025
:10064000000000803B7CC0F778F80000000000004C
:10065000000000000000000000000000000000009A
:10066000000000000000000000000000000000008A
:10067000007982E7780E224AE0F1788EE3000000EC
:10068000808402244112624A100A4192140100003F
:10069000800404144111544A10084151140100000F
:1006A0008004041221115449100421512401000036
:1006B000800404111111944910081151C401000063
:1006C00080C4842009128C49100B09920401000097
:1006D0008078C4E77C0E88C8E3F17C8EE3000000DC
:1006E0008000020000000000000000000000000088
:1006F00000010200000000000000000000000000F7
:10070000000000963007772C610EEEBA5109991956
:10071000C46D078FF46A7035A563E9A395649E32B2
:1007200088DB0EA4B8DC791EE9D5E088D9D2972BF6
:100730004CB609BD7CB17E072DB8E7911DBF906412
:1007400010B71DF220B06A4871B9F3DE41BE847D56
:10075000D4DA1AEBE4DD6D51B5D4F4C785D38356F2
:10076000986C13C0A86B647AF962FDECC9658A4F76
:100770005C0114D96C0663633D0FFAF50D088DC852
:10078000206E3B5E10694CE44160D5727167A2D166
:10079000E4033C47D4044BFD850DD26BB50AA5FAA2
:1007A000A8B5356C98B242D6C9BBDB40F9BCACE306
:1007B0006CD832755CDF45CF0DD6DC593DD1ABAC82
:1007C00030D9263A00DE518051D7C81661D0BFB566
:1007D000F4B42123C4B3569995BACF0FA5BDB89EE2
:1007E000B802280888055FB2D90CC624E90BB18786
:1007F0007C6F2F114C6858AB1D61C13D2D66B690C2
:1008000041DC760671DB01BC20D2982A10D5EF8935
:1008100085B1711FB5B606A5E4BF9F33D4B8E8A271
:10082000C9077834F9000F8EA8099618980EE1BB15
:100830000D6A7F2D3D6D08976C6491015C63E6F451
:10084000516B6B62616C1CD83065854E0062F2EDB5
:1008500095066C7BA5011BC1F4088257C40FF5C631
:10086000D9B06550E9B712EAB8BE8B7C88B9FCDF15
:100870001DDD62492DDA15F37CD38C654CD4FB5811
:1008800061B24DCE51B53A7400BCA3E230BBD44145
:10089000A5DF4AD795D83D6DC4D1A4FBF4D6D36A61
:1008A000E96943FCD96E34468867ADD0B860DA7325
:1008B0002D0444E51D03335F4C0AAAC97C0DDD3CC1
:1008C000710550AA41022710100BBE86200CC925C5
:1008D000B56857B3856F2009D466B99FE461CE0E21
:1008E000F9DE5E98C9D9292298D0B0B4A8D7C71725
:1008F0003DB359810DB42E3B5CBDB7AD6CBAC02081
:1009000083B8EDB6B3BF9A0CE2B6039AD2B174398C
:1009100047D5EAAF77D29D1526DB048316DC731228
:100920000B63E3843B64943E6A6D0DA85A6A7A0BAC
:10093000CF0EE49DFF099327AE000AB19E077D44C8
:10094000930FF0D2A3088768F2011EFEC206695D0C
:100950005762F7CB67658071366C19E7066B6E7668
:100960001BD4FEE02BD3895A7ADA10CC4ADD676FAC
:10097000DFB9F9F9EFBE8E43BEB717D58EB060E888
:10098000A3D6D67E93D1A1C4C2D83852F2DF4FF19C
:1009900067BBD16757BCA6DD06B53F4B36B248DA18
:1009A0002B0DD84C1B0AAFF64A0336607A0441C3BC
:1009B000EF60DF55DF67A8EF8E6E3179BE69468C38
:1009C000B361CB1A8366BCA0D26F2536E26852951C
:1009D000770CCC03470BBBB91602222F260555BE58
:1009E0003BBAC5280BBDB2925AB42B046AB35CA7BC
:1009F000FFD7C231CFD0B58B9ED92C1DAEDE5BB0F8
:100A0000C2649B26F263EC9CA36A750A936D02A9EB
:100A100006099C3F360EEB85670772135700058267
:100A20004ABF95147AB8E2AE2BB17B381BB60C9B4B
:100A30008ED2920DBED5E5B7EFDC7C21DFDB0BD487
:100A4000D2D38642E2D4F1F8B3DD686E83DA1FCDEB
:100A500016BE815B26B9F6E177B06F7747B718E627
:100A60005A0888706A0FFFCA3B06665C0B0111FFCB
:100A70009E658F69AE62F8D3FF6B6145CF6C1678C7
:100A8000E20AA0EED20DD75483044EC2B3033961FB
:100A90002667A7F71660D04D476949DB776E3E4A57
:100AA0006AD1AEDC5AD6D9660BDF40F03BD837535B
:100AB000AEBCA9C59EBBDE7FCFB247E9FFB5301CF7
:100AC000F2BDBD8AC2BACA3093B353A6A3B42405FB
:100AD00036D0BA9306D7CD2957DE54BF67D9232E17
:100AE0007A66B3B84A61C4021B685D942B6F2A37DB
:100AF000BE0BB4A18E0CC31BDF055A8DEF022D4E29
:100B0000616D6573207570646174656400256400AF
:100B10003C7E7E3C24E7FF7E6CD8B666CCFB670E3D
:100B200053495A453A202564004352433A20253020
:100B3000386C5800253032580025303458002530A4
:100B40003258002530345800256C7500256C75200E
:100B500062707300534B49505045440030003100DF
:100B600020002000202000202020002000424144BE
:100B70002000204F4B2000440020002000200020B7
:100B80000020004241442000204F4B20003A20002A
:100B90002000410000002100240027002A002D0031
:100BA0003000330001010000040107010A010000C8
:100BB00020002300260029002C002F003200000115
:100BC000000003010601090100000A0B02090C0DD7
:100BD0000E080703040100000000000000000000F0
:100BE0000000000000000000000000000000000005
:100BF00000000000121110000000000000000000C2
:100C00000000000000000000000000000000505242
:100C100045535320425554544F4E2E2E2E2E2028ED
:100C20007820746F206578697429004E6F002077F2
:100C300072697474656E20003B207265616465643E
:100C400020004572726F7220696E20416464726583
:100C500073732000436865636B696E670046696C57
:100C60006C696E6720776974682072616E646F6D5D
:100C70002076616C7565732000206572726F7273E7
:100C800020666F756E642E004E6F00207772697457
:100C900074656E20323535003B2072656164656491
:100CA00020004572726F7220696E20416464726523
:100CB00073732000436865636B696E670046696CF7
:100CC0006C696E672077697468204F6E65730020C9
:100CD0006572726F727320666F756E642E004E6F50
:100CE00000207772697474656E2030003B20726555
:100CF0006164656420004572726F7220696E2041E4
:100D00006464726573732000436865636B696E6722
:100D10000046696C6C696E672077697468205A6553
:100D2000726F65730054455354494E47204D454DED
:100D30004F5259002020202020204F4B202D2D2DB8
:100D40002D2D2D414444522D2D2D2D2D2D20373666
:100D50003534333231302037363534333231302088
:100D6000373635343332313020373635343332315B
:100D70003000202020202020202020202020202083
:100D80002020202020202020202020202D2D253034
:100D900034582D2D202D2D414444522D2D202D2D04
:100DA000253034582D2D202D2D414444522D2D0019
:100DB0002020202020204F4B202D2D2D2D2D2D416A
:100DC0004444522D2D2D2D2D2D20373635343332E0
:100DD0003130203736353433323130203736353400
:100DE0003332313020373635343332313000202041
:100DF00020202020202020202020202020202020F3
:100E000020202020202020202D2D253034582D2D4D
:100E1000202D2D414444522D2D202D2D2530345888
:100E20002D2D202D2D414444522D2D005445535439
:100E3000494E47204144445220425553002020202F
:100E400020204F4B202830292028312920373635C3
:100E500034333231302037363534333231300020BC
:100E6000202020204F4B20283029202831292037CE
:100E70003635343332313020373635343332313051
:100E800000290054455354494E47204441544120C1
:100E90004255532028414444523D004138202041CE
:100EA0003620204137202041352020413420204168
:100EB0003320204132202041312020413020205059
:100EC000532020455220202D2D20202D2D20202D57
:100ED0002D2020575220202D2D005430202044302A
:100EE0002020443120204432202044332020443428
:100EF0002020443520204436202044372020413112
:100F000030205031342050313120503130204131A7
:100F10003120413920202D2D0028582920544F20E0
:100F200045584954004E65772052414D2064656C08
:100F300061792076616C75653A200043757272653F
:100F40006E742052414D2064656C61792076616C2D
:100F500075653A20004E657720616464722074657F
:100F600073742076616C75653A2000437572726502
:100F70006E74207465737420616464722076616C91
:100F800075653A2000437573746F6D2074657374D2
:100F90000052414D204C4544204F4E005344204CBC
:100FA0004544204F4E00444953504C4159204D4F29
:100FB00044454C3D004F5054494F4E3F20002A2A93
:100FC0002A2A2A2A2A2A2A2A2A2A2A2A2A2A2A2A81
:100FD0002A2A2A002851292051554954002900283D
:100FE000392920534554204144445220464F522031
:100FF0004441544120425553205445535420280025
:10100000283829205345542052414D2044454C4115
:101010005920464F52205752495445280028372915
:1010200020425553002836292052414D00283529A9
:1010300020535045414B45520028342920425554F5
:10104000544F4E530028332920534400283229207E
:101050004C4544730028312920444953504C415990
:10106000002A2A2A2A20444941474E4F53544943D3
:1010700053202A2A2A2A00496E697469616C697AA8
:10108000696E6720534420636172642E2E2E0052D5
:101090006573657420746F20666163746F72792E56
:1010A0002E2E004553432B454E5445522064657403
:1010B0006563746564004C61756E6368696E672072
:1010C00073656C65637467616D652E62696E004C53
:1010D0004546542B455343206465746563746564C9
:1010E000004C4546542B454E54455220646574656A
:1010F000637465640052656275696C64696E67202B
:10110000004E554D46494C45533D00726561642083
:101110006572726F722028256429007265616420EF
:101120006572726F722028256429007265616420DF
:101130006572726F722028256429007265616420CF
:101140006572726F722028256429007265616420BF
:101150006572726F722028256429007265616420AF
:101160006572726F72202825642900526561646976
:101170006E6720256C7520627073003F3F3F3F3FD4
:101180003F3F3F3F3F3F3F3F3F3F3F3F3F3F3F3F6F
:101190003F3F3F3F3F3F3F3F3F3F3F0C3F3F3F0BC6
:1011A0003E103F2E3B29102728272A000102030466
:1011B00005060708090A0A3F2B3F0D3F2025231A81
:1011C000121B1C1D161E1F0E262D170F1813191487
:1011D000152411222C213F3B3F3F283F2025231A75
:1011E000121B1C1D161E1F0E262D170F1813191467
:1011F000152411222C212E2E3B3F3F20426C6F6381
:101200006B2072656164206572726F720053656550
:101210006B206572726F7220696E207461726765EF
:10122000742066696C65203A005365656B206572B1
:10123000726F7220696E20736F75726365206669C4
:101240006C65203A003A0072656164696E672066D9
:10125000696C653A2025644B0053495A453A256428
:1012600000504147473A257300414444523A2564AF
:10127000004E414D453A2573000102102020080818
:1012800010204010204080020102010804020101E8
:1012900002040810204080804020100804020180D1
:1012A0000402018040201008040201080402010128
:1012B0000204081020408001020408102040800031
:1012C000002200250028002B002E003100340002EF
:1012D000010000050108010B0105050505070508CA
:1012E000080808020202020A0A08080404040401A9
:1012F00001010101010101030303030303030304CB
:101300000707070C0C0C0C0C0C0C0C02020202065A
:10131000060606060606060B0B0B0B0B0B0B0B0249
:10132000BF0203020304010104050800FF06FF06D3
:10133000000147029707C22006C5FABC022109C571
:10134000FA40D80EE500220AC5DA49944449CE0095
:10135000230DC53AA5241994CAA0949218240BC54C
:101360005AD952DB9264CB01250AC5DA619255C283
:101370001C04260DC53A59122559254AB2240627C0
:1013800008C5FA405867012809C5FA4016B6E600B4
:101390002909C5DA69D89623002A0BC5FA581449D9
:1013A000432495012B0AC5FA68180D5298032C079F
:1013B000C5FACC5A0D2D08C5FAE42127012E08C51F
:1013C000FACCD916012F0AC5FA489835E610003034
:1013D0000DC5FA4096444994444996033109C5FA2B
:1013E0004026B6CD00320AC5DA523192C221063308
:1013F0000BC5BA4396A94914E900340CC5FA402636
:1014000025D190853900350BC5BA4312AE4914E990
:1014100000360AC5DA523855A24807370BC5BA4319
:10142000988559982300380AC5DA5249AA44910E82
:10143000390AC5DA52258AC648073A09C5FAA0A66C
:10144000239A0E3B09C5FAA8A6235A0D3C09C5FAF2
:1014500048564CCB003D09C5FA94211E72103E0936
:10146000C5DA6931AB23003F0BC5FA409684590EAB
:10147000E500400CC55A52242D8992485505410C6F
:10148000C5DA52254A86244AA218420AC5BA5365CB
:10149000AA44C90E430AC5DA52252C453A00440C29
:1014A000C5BA53254AA2244A7600450BC5BA431251
:1014B0004E6138C400460AC5BA43124E611D024748
:1014C0000BC5DA52254C9428D201480EC5BA5112E8
:1014D000254312255112C5004908C5DA5BD83603E9
:1014E0004A0AC5DA5B584AB21C014B0CC5BA5152C4
:1014F000D2922889CA004C08C5BA61C721064D0E90
:10150000C5BA5132244312255112C5004E0EC5BA38
:1015100051A2244392288912C5004F0CC5DA5225E6
:101520004AA2248A7400500BC5BA53254AA63087B4
:1015300000510CC5DA52254A948AA42600520BC5E4
:10154000BA53254AA64A14035309C5DA526B54D23A
:10155000015407C5DA5BD81D550DC5BA5112255186
:10156000122551A403560CC5BA5112255112459AA1
:101570000E570EC5BA5112255132244312C50058D8
:101580000CC5BA5112459A54896200590AC5BA99D4
:1015900096D4C23A005A0AC5BA4398350E31005B58
:1015A00008C5DA53D838035C08C5BA61DA18035D98
:1015B00007C5DA63A7195E09C5FA4096E4AC005F77
:1015C00008C5FA3C0C09006007C5DA69CE0C610A4F
:1015D000C5FAA4254AA26806620AC5BA613855A2AE
:1015E00064076309C5FA34294C6500640CC5FA48E0
:1015F000182D51124533006509C5FA242931EA0036
:10160000660CC5FA409644D916E60800670AC5FA82
:1016100024A934461200680BC5BA613855A2248A41
:10162000016909C5FA408E88B5196A0BC5FA480EDA
:1016300085A5248B006B0AC5BA6129992A510C6CC7
:1016400007C5DA62B7196D0BC5FA14A54549942A86
:10165000006E0AC5FA94A91225510C6F0AC5FA2426
:10166000A912453A00700AC5FA94A9328521007181
:101670000AC5FAA4258AC60A00720AC5FA949252CB
:10168000CC21007309C5FA34498D7400740AC5DA97
:1016900061B685499603750BC5FA94288992289AF4
:1016A00001760BC5FAA4244AA224CB01770AC5FA15
:1016B000944C4994CE00780AC5FA9428D2A43200FA
:1016C000790CC5FA942889A2258A24007A0AC5FAD9
:1016D0009421AB0D31007B0AC55A521AA9592A032D
:1016E0007C08C5FA40D83B007D0BC51A6A964A694A
:1016F000A423007E08C5DA493B3300A006C5FABC26
:1017000002A109C5FA400E85ED00A20BC5FA68B624
:1017100094926C8B00A30BC5FA4096245B98B4039B
:10172000A40BC5FA58654AA2254B01A50CC5BA59A8
:101730005219A468907200A609C55A611D0AEB00EF
:10174000A70AC53A4B3895C66407A807C5DA49CE3B
:101750000DA90AC5DA4B659A94CA0CAA0AC55A5251
:1017600092E9C04E02AB0AC5FAA4A42DC94100AC4F
:1017700007C5FA0C6319AD07C5FA0C3B09AE0AC5DB
:10178000DACB83B2283300AF07C5DA3B3700B00AA3
:10179000C5FA409664390B00B109C5FA68B6E5C8C8
:1017A0000CB20AC55A591266D94E02B309C53A6A33
:1017B000A4463A0DB407C5FA409673B50CC5FA9421
:1017C00028899228994200B60EC5DAC3900C49A226
:1017D000444994A400B707C5FA2C390DB807C5FAD7
:1017E0001CB30CB909C55A9958DB4900BA0AC55A45
:1017F0005992E5C84E02BB09C5FA945AD28E02BC72
:101800000AC51A614B260D590EBD0BC51A6125522A
:10181000C22C9B01BE0CC51A69964A493464390032
:10182000BF0BC5FA400E656192E500C00CC53A6970
:10183000265586244AA218C10CC55A592855862413
:101840004AA218C20DC53A5249AA0C499444310023
:10185000C30CC53ADDA4CA9044491403C40DC51A8B
:10186000510E48952189922806C50DC53A5249AABC
:101870000C4994443100C60CC5DA4B298986A494DE
:10188000C800C70AC5DA52252C455A06C80CC53A05
:10189000693424E1140E3100C90CC55A593624E1CB
:1018A000140E3100CA0CC53A526548C2291C6200A8
:1018B000CB0CC51A513C24E1140E3100CC09C53AB9
:1018C00069B685B519CD09C57AB52DACCD00CE0A5E
:1018D000C55A59126D616D06CF0AC53A75600B6B1A
:1018E0003300D00CC5DA533424A5244A6600D10C49
:1018F000C53A9D2A4A4589922806D20CC53A6926DE
:1019000055A2248A7400D30CC55A592855A2248A9A
:101910007400D40CC53A5249AA444914E900D50BC5
:10192000C53ADDA44A9444910ED60CC51A510E480E
:10193000952889221DD709C5FA0C49568901D80C6A
:10194000C5DA4BA2249644497600D90CC53A6954AD
:1019500089922889221DDA0CC55A59298992288929
:10196000221DDB0DC53A52254AA2244AA24807DCB3
:101970000DC51A511C2551122551A403DD0AC57A43
:10198000A52CA9857500DE0BC5BAE154899229877B
:1019900000DF0BC5DA52A59444953A00E00CC53A35
:1019A000698E2C5112453300E10CC55A590E2D5148
:1019B00012453300E20CC55A5992034B9444D10CA2
:1019C000E30BC53ADD91254AA26806E40CC5DA4965
:1019D0000E2C5112453300E50CC53A52495BA22446
:1019E0008A6600E60AC5FA9421524C430AE709C503
:1019F000FA34294CB508E80AC53A698E4889510776
:101A0000E90AC55A590E49895107EA0AC53A521DD1
:101A10009012A30EEB0AC5DA490E48895107EC096A
:101A2000C53A698E88B519ED09C57A7544ACCD0003
:101A3000EE0AC55A599203626D06EF09C5DA490EDE
:101A400088B519F00CC51A495649A3258A7400F1C6
:101A50000BC53ADD81A91225510CF20BC53A698EEE
:101A6000489528D201F30BC55A590E499528D20141
:101A7000F40BC53A521D902A51A403F50BC53ADD6B
:101A800011A912453A00F60BC5BA510E489528D255
:101A900001F709C5FA688EEC480EF80AC5FAA425C4
:101AA000B1243B00F90CC53A690E44499444D10C69
:101AB000FA0CC55A598E44499444D10CFB0CC53AD2
:101AC00052394AA2248A6600FC0CC5BA511C255121
:101AD00012453300FD0DC55A598E4449142D512429
:101AE00001FE0AC5BA613855A63004FF0CC5BA51CB
:101AF0001C2551B444910400000004FFFF0000BF06
:101B00000203020304010204060D00FE09FE0AFF9F
:101B100001AB03720A9A2007EEF8F95F00210AEE82
:101B2000F80969DFC19C02220CEEF8E1244BB224D3
:101B3000E717002311EEF8A949964483944483944F
:101B400064494E062411EEF809E190D492704CB22B
:101B50002419C29C02250FEEF8E128694AD2B09AF6
:101B60004449534E2610EEF8A961922561258B94C5
:101B7000285372182709EEF809699D9F00280DEE79
:101B8000F8A1300DD3CE699C2300290DEEF88138E1
:101B90008DD38E699863002A0DEEF80959529A92F6
:101BA0005ACE23002B0BEEF8596B8396E6CC002C13
:101BB00009EEF8F98358C7002D09EEF87919749EDB
:101BC000002E0AEEF8F94338E610002F0DEEF84922
:101BD000699886D530CD69003013EEF80961126539
:101BE0004996644996645112E61400310CEEF809E6
:101BF000A196A4BD0D3A0C320EEEF8E1294BB23499
:101C0000EC3AE83000330DEEF8D1410D8B739A6455
:101C1000D14E340FEEF82969A8255912950631CD19
:101C200009350EEEF8D141492B929456B268273609
:101C300010EEF8E1294BD27488B2244BB2682737F2
:101C40000DEEF8D1410DD3300DD33A093811EEF82D
:101C5000E1294BB2248BA62CC9922CDA093910EE5B
:101C6000F8E1294BB2248B86B492453B013A0CEE45
:101C7000F859C331A785630E013B0BEEF859C33108
:101C8000A789750C3C0AEEF84961E7EE30003D0B80
:101C9000EEF8390D3A3CE88C003E0AEEF8D1B86314
:101CA000771A003F0EEEF8E1294BB234ACE6604EF5
:101CB000014010EEF8E1294BB22452FA458A871C04
:101CC000064113EEF809611265499664C9A064499A
:101CD0009664390C420EEEF8D1218B7ADAA25E8638
:101CE0009C00430CEEF8E1294BD2DEA29D00440C8F
:101CF000EEF8D1218BFA7F197202450EEEF8D14130
:101D000049AB439456071D06460DEEF8D14149AB49
:101D10004394B6D300470EEEF8E1294BD226254B6B
:101D2000B268274814EEF8D12CC9922CC99241C947
:101D3000922CC9922C87014909EEF8E131EDE34E6E
:101D40004A0BEEF80963DA534DA7004B12EEF8D1B7
:101D50002CC992A892894916D5922C87014C0AEE7B
:101D6000F8D1FE3AE830004D11EEF8D12CC9124BF3
:101D7000BF25599225590E034E12EEF8D12C91121F
:101D800029E9272552B224CB61004F12EEF8E12950
:101D90004BB2244BB2244BB2248B76025010EEF897
:101DA000D121CA922CC992214ADB69005112EEF866
:101DB000E1294BB2244BB2244BB2A469CE01521399
:101DC000EEF8D121CA922CC992214AB2A896643960
:101DD0000C530EEEF8E1294BD2784E932CDA0954CD
:101DE0000AEEF8D1414BFB9D025513EEF8D12CC9F8
:101DF000922CC9922CC9922CC9A29D005613EEF8C0
:101E0000D12CC9922CC9A2244BB2244C730A00577E
:101E10000FEEF8D12CC9922CC992FE4F494E58139F
:101E2000EEF8D12CC9A2244BC24A96445992E5300F
:101E300000590EEEF8D12CC9A2244BC2B43B055A6E
:101E40000EEEF8D1410DD3B01AA6830E035B0AEE55
:101E5000F8812DEDAF3B025C0CEEF8D1721A57E31E
:101E60003487015D0AEEF881B57FDB11005E0AEE72
:101E7000F809611265393F5F08EEF8F9B74107606C
:101E800009EEF89138E7CF00610EEEF8B9CDD190A8
:101E9000644964C961006210EEF8D1D621CA922C5F
:101EA000C9922C197202630CEEF8B94D5992D6A260
:101EB0009D006411EEF849696948B2244BB2248B45
:101EC000861C06650DEEF8B94D5932286916ED04E9
:101ED000660DEEF8095A540D872C6D27016710EE38
:101EE000F8B94D5992255934A449164D006810EEA1
:101EF000F8D12E9294644996644996C300690AEE1B
:101F0000F8C939A676DC096A0BEEF819724CEDD4E3
:101F10004D036B0EEEF8D14E954C4CB2A896C30013
:101F20006C09EEF861B51F77026D0CEEF839295196
:101F3000D2FF2D87016E10EEF839259294644996F0
:101F4000644996C3006F0EEEF8B94D599225599227
:101F5000453B01700FEEF8390D51966449960C51CE
:101F60005A05710FEEF8B90D49966449160D690BC3
:101F700000720CEEF839259294A4ED3400730CEE47
:101F8000F8B94D59244759B413740CEEF8A9C5217A
:101F90004B9B329D00750FEEF83965499664499662
:101FA00044961C06760FEEF83965499664519225E1
:101FB000614E01770CEEF839654996F44F494E7839
:101FC0000EEEF839655112A6611265390C7910EEE2
:101FD000F83965499664496449932C9A007A0BEE66
:101FE000F8390D62D74187017B0BEEF8212D6D93F7
:101FF000D3661D7C09EEF809697FA7007D0BEEB85A
:10200000E5B4594BDB740C7E0BEEF8E128E994F350
:102010000B00A007EEF8F95F00A10AEEF809399865
:10202000F69D02A20EEEF809E194744BB2A434E6D8
:102030000CA30EEEF8095A540DC7B494243A01A427
:102040000EEEF8D94A5B9225D994E55400A512EE1C
:10205000F8D12CC9A2244BA241CB062DCD2900A634
:102060000BEEF809693B98B65300A70EEEF8112D58
:102070002A6B519B1CD57402A80AEEF881244B727E
:10208000FE0CA90FEEF881294B5A9C124BB768271A
:1020900003AA0FEEF8E1391A922C1A7260D01901D6
:1020A000AB10EEF859932889922C099330C9A900F6
:1020B000AC0AEEF87919D43A2300AD08EEF879DAD3
:1020C0007903AE10EEF881294B96C4CB9258B268D2
:1020D0002703AF09EEF8D141E7AF00B00AEEF809E7
:1020E0005AD4A6F309B10DEEF8C9693668690E0D28
:1020F0003A15B20CEEF8813049C370E71B00B30CFF
:10210000EEF8813009E34CE72300B408EEF8A13083
:10211000E71FB510EEF83965499664499644CA52EE
:102120004D01B614EEF8E12159922559922552B28B
:10213000244BB2248701B708EEF879D37903B808A5
:10214000EEF8F9E73003B90AEEF881502DEE7C0382
:10215000BA0FEEF8E1294BB2248B7664D01901BB9B
:102160000FEEF8D9923009932C899228C919BC0F27
:10217000EEF881502DEE40A825D99AC300BD0EEE91
:10218000F881502DCE619286E10E03BE11EEF881EA
:102190003009E32C09A3504BB2358701BF0EEEF88E
:1021A00009399886D52CC9A29D00C012EEF8813855
:1021B000072B519664C9A0644996C300C112EEF87A
:1021C000A130072B519664C9A0644996C300C2137D
:1021D000EEF8112DCAA13089B2244B06254BB21C52
:1021E00006C313EEF89152926361126549960C4A48
:1021F0009664390CC414EEF881244B722C4CA22C3A
:10220000C99241C9922C8701C513EEF8913009D3C8
:102210003089B2244B06254BB21C06C613EEF8E1FA
:1022200044A925599225D296644996EC3000C70CF2
:10223000EEF8E1294BD2DEA2B108C810EEF88138E1
:102240008706254D87284D071D06C910EEF8A130D9
:102250008706254D87284D071D06CA11EEF8112D5A
:10226000CA814149D3214AD3418701CB12EEF8817B
:10227000244B726450D27488D274D06100CC0BEEBF
:10228000F88138C7C6B4E34ECD0BEEF8A130C7C60F
:10229000B4E34ECE0CEEF8112DCA9131EDB813CF48
:1022A0000DEEF881244B72684C3BEE04D00EEEF834
:1022B000D1218B7A59A2BE0C3901D113EEF891527B
:1022C000922359922552D249C9922C8701D211EEFC
:1022D000F88138C7A62CC9922CC9922CDA09D311DF
:1022E000EEF8A130C7A62CC9922CC9922CDA09D4D9
:1022F00012EEF8112DCA91294BB2244BB2248B76E1
:1023000002D512EEF891529243539664499664496D
:1023100016ED04D613EEF881244B7268CA922CC9CC
:10232000922CC9A29D00D70DEEF83965511256A224
:102330002CA702D811EEF8B1688A9448E95FA4444A
:102340008AA61C04D912EEF8813887B2244BB22435
:102350004BB2248B7602DA12EEF8A13087B2244B0E
:10236000B2244BB2248B7602DB13EEF8112DCA8116
:102370002CC9922CC9922CC9A29D00DC13EEF881C5
:10238000244B72244BB2244BB2244BB26827DD0F8E
:10239000EEF8A13087B2248B92306DA700DE10EEEC
:1023A000F8D17488B2244BB26488D23A0DDF10EEB3
:1023B000F8612DEA922559544BB224D109E00FEE71
:1023C000F8E13A364743922591258701E110EEF86E
:1023D00029618ECDD190644964C96100E210EEF8A4
:1023E000095A94237334245912597218E311EEF8E0
:1023F000094994E4D01C0D499644961C06E411EE5C
:10240000F8E1244B72688E86244B224B0E03E511B3
:10241000EEF8112DCA74688E86244B224B0E03E60B
:102420000EEEF8B98D49342559524A7202E70CEE86
:10243000F8B94D5992D6A2B108E80EEEF8E13A3655
:1024400065C9A0A459B413E90FEEF829618E4D595E
:1024500032286916ED04EA10EEF8095A94235396CF
:102460000C4A9A453B01EB10EEF8E1244B7268CA26
:10247000924149B36827EC0AEEF8E13AA676DC0906
:10248000ED0BEEF829618EA91D7702EE0CEEF8092E
:102490005A94236AC79D00EF0CEEF8E1244B724872
:1024A000EDB813F011EEF881240CE56CCA922CC93A
:1024B000922CDA09F113EEF8094994E448224949CB
:1024C0009664499664390CF20FEEF8E13A366549A4
:1024D00096644916ED04F310EEF829618E4D599279
:1024E000255992453B01F410EEF8095A942353966E
:1024F00064499664D14EF511EEF8094994E4D094FC
:102500002559922559B413F611EEF8E1244B72685F
:10251000CA922CC9922CDA09F70CEEF8C9690E0D93
:102520003A94E60CF80EEEF8394453A4F4458AA622
:102530001C04F910EEF8E13A9425599225591259E4
:102540007218FA11EEF829610E65499664499644AD
:10255000961C06FB12EEF8095A94035992255992DB
:102560002591258701FC13EEF8E1244B72244BB230
:10257000244BB224B2E43000FD12EEF829610E655E
:10258000499664496449932C9A00FE11EEF88969D2
:102590004592922CC9122949A43405FF13EEF8E1A3
:1025A000244B72244BB2244B224B9A64D10400007A
:1025B0000004FFFF0000E00203020304010204061E
:1025C0000C00FE08FE09FF018503430B532007E6BC
:1025D000F8F94F00210AE6F80969EF604E01220C74
:1025E000E6F881244BB224E71700230EE6F8E12435
:1025F0001AA4241AA424E708240FE6F891704A3A92
:102600008E4996741A7308250EE6F8E121E95312F3
:102610006A4A4F3901260FE6F8612DAA84952C6984
:10262000CA941C062709E6F891B4CE4F00280AE6A2
:10263000F8A1B0DA731D01290AE6F881B8DA631D42
:10264000032A0CE6F80959529A925ACE152B0AE63B
:10265000F8596B8396E60C2C09E6F8F94154C3103F
:102660002D08E6F879DA39022E08E6F8F945D4099A
:102670002F0DE6F849699886699886690A3010E650
:10268000F8E1294B22A5454AB2248B7602310BE6AC
:10269000F809D9DADBA0C300320CE6F8E1294BC314
:1026A000AE830E03330DE6F8E1294B33394DB268A2
:1026B00027340EE6F829A19644A5414CC31D0635E2
:1026C0000EE6F8D14149D3214E932CDA09360FE6B4
:1026D000F8E1294D87284BB2248B7602370BE6F8B8
:1026E000D1412D56DB29003810E6F8E1294BB268BC
:1026F000CA922CC9A29D00390EE6F8E1294BB224FA
:102700008B86B4B4133A0AE6F859459D24EA043B93
:102710000BE6F819ED24510D43003C09E6F8496138
:10272000733B153D0BE6F8D9061D18746E003E0983
:10273000E6F8E18EED2C003F0CE6F8E1294B8B75B5
:1027400030A700400FE6F8E1294B92A5CB92C64393
:102750000E034112E6F809619225519664C9A064FE
:102760004996C3004212E6F8D121CA922C19A22C34
:10277000C9922C197202430BE6F8E1294BD26ED1B3
:102780004E4412E6F8D121CA922CC9922CC9922C3F
:10279000197202450EE6F8D14149D3214AAB830EA6
:1027A00003460DE6F8D14149D3214ADB6900470EC3
:1027B000E6F8E1294BD292922559B4134812E6F873
:1027C000D12CC9922C19942CC9922CC97218490B7E
:1027D000E6F8D1414B7B1B74184A0CE6F84969971F
:1027E0002CC9A29D004B10E6F8D12C892A992826E5
:1027F0005954CB61004C09E6F8D17E1D74184D1078
:10280000E6F8D12CB1F45B92255992E530004E11D7
:10281000E6F8D12C91924E4A9664499664390C4F51
:1028200010E6F8E1294BB2244BB2244BB268275092
:102830000EE6F8D121CA922C19A2B49D065110E6D9
:10284000F8E1294BB2244BB2244B9AE61C5212E613
:10285000F8D121CA922C19A22CC9922CC9721853F2
:102860000DE6F8E1294BE2394DB26827540AE6F843
:10287000D1414BFB4E015511E6F8D12CC9922CC920
:10288000922CC9922CDA095611E6F8D12CC9922C57
:10289000C9A2244BC234A7005710E6F8D12CC99224
:1028A0002CC992BE58B21C065811E6F8D12CC99218
:1028B0002C4AC24A9425590E035910E6F8D12CC966
:1028C000922CC9A2244CEB14005A0CE6F8D1410D0D
:1028D000BBA6830E035B0AE6F81131ED571D015CC0
:1028E0000CE6F8E1344EE3344EE3345D0AE6F801D9
:1028F000B53FEA10005E0BE6F809611265395F002A
:102900005F07E6F8F9B7616009E6F88138E72F005C
:10291000610EE6F8B90D4996644964C96100620E1A
:10292000E6F8D1D621CA922CC9922127630CE6F889
:10293000B94D5992C6430E036410E6F849696948D7
:10294000B2244BB268C86100650DE6F8B94D593242
:1029500028F190C300660BE6F8295A38A6DD290055
:10296000670FE6F8B90D49966449160D6934016898
:102970000FE6F8D1D621CA922CC9922C8701690A98
:10298000E6F80939496DDC096A0AE6F8093949EDC2
:102990004D046B0CE6F8D14E956C8B6A390C6C09C2
:1029A000E6F861B58F3B016D0BE6F8390D51D2FFAA
:1029B0000E036E0EE6F83925929464499664390C3C
:1029C0006F0CE6F8B94D59922559B413700FE6F81B
:1029D000390D51966449960C519A02710EE6F8B978
:1029E0000D49966449160D6905720CE6F839259271
:1029F00094A4751A00730BE6F8B90D493C27434EB1
:102A0000740BE6F80969714CCB3A0C750EE6F8398F
:102A1000654996644964C96100760EE6F8396549EE
:102A200016255912E61400770AE6F83925FD4F49B4
:102A30004E780DE6F83965511256A22C8701790FB0
:102A4000E6F8396549966449160D6934017A0BE652
:102A5000F8390D62E3A0C3007B0BE6F8A1306D8C62
:102A6000D3E6087C09E6F891B47F87007D0BE6F891
:102A700081386D0ED3C6107E0AE6F819958ACE1BF2
:102A8000007F07E6F8F94F008007E6F8F94F00816C
:102A900007E6F8F94F008209E6F8F9210D73108373
:102AA0000BE6F8B4B4714CBB8900840CE6F8F9214C
:102AB000C99228C921008509E6F8F935A9C300861D
:102AC0000AE6F809E198B63303870BE6F809E198BE
:102AD0008663CE0C8809E6F89130C9F9038911E6BE
:102AE000F8814BA49492305412A5A72487018A0E32
:102AF000E6788AE19425F19C2659B4138B0AE6F80E
:102B0000790AD33827018C12E6F8E121A925592248
:102B100025599225E190C3008D07E6F8F94F008E04
:102B200007E6F8F94F008F07E6F8F94F009007E63F
:102B3000F8F94F009109E6F829619AF30D9209E638
:102B4000F8296998F30D930CE6F80949946449CE85
:102B50002700940CE6F80949964449CE2700950DC4
:102B6000E6F8A9D3A00CCA20EDAC009608E6F879E7
:102B7000DA39029709E6F87919764E009809E6F8ED
:102B800001A5A2F307990BE6F8D121A92CC9CE071C
:102B90009A0EE6F88124CC494312CFC990139B0AC0
:102BA000E6F87989D330A7019C0DE6F8B92551D212
:102BB000B214131D069D07E6F8F94F009E07E6F8CC
:102BC000F94F009F0FE678EA842CC9922C4AC2B4D0
:102BD0004E01A007E6F8F94F00A109E6F829399857
:102BE000F64EA20EE6F859C329E9968443964300AF
:102BF000A30DE6F8012DAA6E695B32E404A40CE68D
:102C0000F8D94A5B924D594E05A50FE6F8D12C4AEA
:102C1000A241CB062DAD5300A60BE6F891B49D96CC
:102C2000B64300A711E678A62CAAD4A25A544B4A60
:102C3000B5684700A808E6F8E124E70FA90FE6F811
:102C4000D139536A49162961B45300AA0BE6B8A6D4
:102C50006E3B61C8B901AB0BE6F879AA446D510E21
:102C600003AC09E6F8390D6A9D11AD09E6F879194A
:102C7000746E00AE0EE6F8D1399292BE4849A29326
:102C800001AF07E6F8E19D3FB00AE6F8112D6AD3DF
:102C9000F904B10DE6F8C96936686936E85400B23E
:102CA00009E678E430DCF905B30AE678E450CD743F
:102CB000BE01B408E6F8A13B3F03B50AE6F839F5D2
:102CC000A7A59A02B611E6F88121E99F862CC99240
:102CD0002CC9921C06B708E6F839DA3902B809E6B9
:102CE000F8F979C8A609B909E678D4E2CE2F00BA76
:102CF0000CE6B8B4A84DA70C393700BB0BE6F87941
:102D000089B2A825CA09BC0EE638D4DA90844D49A8
:102D1000A4AD390CBD0EE638D4DA90842D4A58DCC7
:102D20005100BE10E638E450AA244A584A226DCD1C
:102D30006100BF0BE6F80939D85A8B7602C012E65B
:102D400078E2344CB224CA922C19942CC97218C15E
:102D500012E6F8C2344CB224CA922C19942CC972CF
:102D600018C212E6B8C224C7C2244BA22C19942C54
:102D7000C97218C313E678948A58C992284BB26472
:102D800050B224CB6100C413E678EA5898644994A1
:102D9000255932285992E53000C513E6B8C224AC53
:102DA000644994255932285992E53000C612E6F854
:102DB000E121A925D9102559922559B2C300C70C84
:102DC000E6F8E1294BD26ED15804C80FE678E26CE0
:102DD00050D27488D2EAA0C300C90FE6F8C26C5082
:102DE000D27488D2EAA0C300CA10E6B8C2241A94EA
:102DF000341DA2B43AE83000CB0FE678EAC8A0A4AC
:102E0000E910A5D5418701CC0CE678E26CD0D2DE82
:102E1000061D06CD0CE6F8C26CD0D2DE061D06CE2D
:102E20000EE6B8C22447062DED36E83000CF0CE69A
:102E300078EAC8A0A5BD0D3A0CD012E6F8E121CA87
:102E4000926C88922CC9922C197218D113E678943E
:102E50008A942552D249C9922CC9922C8701D21149
:102E6000E678E270CA922CC9922CC9922CDA09D366
:102E700011E6F8C270CA922CC9922CC9922CDA09B8
:102E8000D411E6B8C22487A62CC9922CC9922CDA98
:102E900009D512E678948A3665499664499664495C
:102EA00016ED04D611E678EAD09425599225599268
:102EB0002559B413D70DE6F8895994849528CB1970
:102EC00001D810E6F8E1294B22A5454AB2248B76B9
:102ED00002D911E678E2AC922559922559922559EA
:102EE000B413DA11E6F8C2AC92255992255992250D
:102EF00059B413DB12E6B8C22447B2244BB2244BB8
:102F0000B2248B7602DC12E678EA4896644996642D
:102F10004996644916ED04DD10E6F8C2AC922559D5
:102F200092454998D62900DE10E6F8D17488B2247B
:102F30004BB26488D29C06DF12E6F8112D4AB22407
:102F4000EA9664499624520E02E010E6F89138A7FA
:102F50000C4996644964C96100E110E6F8A1302784
:102F60000D4996644964C96100E210E6F89130C9E0
:102F7000294392255912597218E311E6F801A5A2C6
:102F80005386244BB224B2E43000E410E6F8E12486
:102F9000A70C4996644964C96100E511E6F89130CF
:102FA00009736C48B2244B224B0E03E60CE6F8B9C9
:102FB0004D49CB521C7218E70DE6F8B94D5992C62F
:102FC00043168600E80FE6F88138274D593228F17C
:102FD00090C300E90FE6F8A130274D593228F1904F
:102FE000C300EA10E6F89130C92953960C4A3CE434
:102FF0003000EB0FE6F8E124A74C593228F190C3DA
:1030000000EC0BE6F8813827A98D3B01ED0BE6F8C3
:10301000A13027A98D3B01EE0BE6F89130C9296A52
:10302000E34EEF0BE6F8E124A7A88D3B01F00FE695
:10303000F801512E0D4996644916ED04F111E6F898
:1030400001A5A21312494AB2244BB21C06F20EE6A5
:10305000F88138274D59922559B413F30EE6F8A19B
:1030600030274D59922559B413F40FE6F89130C921
:10307000295396644916ED04F50FE6F801A5A2530D
:10308000A62CC9922CDA09F60EE6F8E124A74C59D1
:10309000922559B413F70BE6F8597368D0A19C0137
:1030A000F80CE6F8B94D91D222453B01F910E6F84B
:1030B0008138A7644996644964C96100FA10E6F84A
:1030C000A130A7644996644964C96100FB10E6F821
:1030D0009130C9095992255912597218FC10E6F815
:1030E000E12427644996644964C96100FD11E6F84A
:1030F000A130A76449966449160D693401FE10E6B3
:10310000F8D1D621CA922CC992214A5300FF11E668
:10311000F8E124276449966449160D6934010000DA
:103120000004FFFF0000656411241FBECFEFD1E251
:10313000DEBFCDBF00E00CBF1AE0A0E0B2E0E0E9E6
:10314000F7E001E00BBF02C007900D92AE37B10768
:10315000D9F72CE1AEE7BAE001C01D92A332B20765
:10316000E1F718E1C4E9D8E100E006C021970109C0
:10317000802FFE010E940A80C339D10780E0080732
:10318000A9F70E94FA650C94C6830C94000066238C
:1031900029F06A3019F0862F90E008958FEF9FEFA5
:1031A0000895CF92DF92EF92FF920F931F93CF93E8
:1031B000DF93EC01842F8770E1E0F0E0082E01C07E
:1031C000EE0F0A94EAF73E2F7E0199E7E90EF11C13
:1031D000D7019C9110E0923018F41E2F913029F104
:1031E00050E0487FE8ADF9ADC880D980D60150964F
:1031F0009C91949F6001959FD00C11246C0D7D2DA6
:10320000711DDF01A60FB71F011115C08C91812B15
:1032100083278D932150D1F7DF91CF911F910F918B
:10322000FF90EF90DF90CF90089530E0D9CF110F4D
:10323000330F222389F39C91912B93279C938F5FCB
:10324000877021508111F3CF9CADA90FB11DF701FB
:103250009081923028F4913009F031E011E0E9CF0B
:1032600031E0E7CF80E0089580E00895CF92DF92CB
:10327000EF92FF92CF93DF93EC016A017B01E88923
:10328000F98982E08083C11481EED806E104F1045B
:10329000A1F060E079E08DE390E0A70196010E9443
:1032A0003F7F21503109410951095695479537957E
:1032B0002795211580E1380798F0E889F98910826F
:1032C00060E874E88EE190E0A70196010E943F7FDC
:1032D0002150310941095109569547953795279550
:1032E000EC85FD853083EE85FF852083188EEC8983
:1032F000FD8986E08083EA89FB8980818061808303
:10330000EA89FB89808188608083EA89FB898081E2
:1033100080688083EA89FB8980818F7D8083DF914B
:10332000CF91FF90EF90DF90CF900895CF93DF93F0
:10333000C0EADBE18FAFEAADFBAD0190F081E02D9B
:1033400084EA9BE11995EAADFBAD0280F381E02DA3
:1033500084EA9BE1DF91CF91199480931D1C08951D
:103360009B01DC011896ED91FC9141E067E1199415
:10337000AF92BF92CF92DF92EF92FF920F931F9383
:10338000CF93DF936C017B018B01040F151FEB01C1
:103390005E01AE18BF08C017D10759F06991D60178
:1033A000ED91FC910190F081E02DC6011995892BDA
:1033B00079F7C501DF91CF911F910F91FF90EF90A9
:1033C000DF90CF90BF90AF900895FC01538D448D56
:1033D000252F30E0842F90E0821B930B541710F0C0
:1033E000CF96089501970895FC01918D828D9817CD
:1033F00061F0A28DAE0FBF2FB11D5D968C91928DA5
:103400009F5F9F73928F90E008958FEF9FEF0895D5
:10341000FC01918D828D981731F0828DE80FF11D9E
:10342000858D90E008958FEF9FEF0895FC01918DB9
:10343000228D892F90E0805C9F4F821B91098F73B2
:1034400099270895CF93DF93CAEAD2E18BEA93E1FB
:103450000E94161A18161906CCF78BEA93E10E94FF
:10346000F4198D3049F08A3039F090EE980F9B3581
:1034700068F789931882EACFDF91CF9108958EE0A3
:1034800093E10E94161A21E0892B09F420E0822F93
:1034900008958BEA93E10E94161A21E0892B09F422
:1034A00020E0822F0895FC01A48DA80FB92FB11D33
:1034B000A35ABF4F2C91848D90E001968F7399276A
:1034C000848FA689B7892C93A089B1898C91837048
:1034D00080648C93938D848D981306C00288F38941
:1034E000E02D80818F7D80830895EF92FF920F936E
:1034F0001F93CF93DF93EC0181E0888F9B8D8C8DA0
:1035000098131AC0E889F989808185FF15C09FB793
:10351000F894EE89FF896083E889F9898081837056
:10352000806480839FBF81E090E0DF91CF911F9105
:103530000F91FF90EF900895F62E0B8D10E00F5F26
:103540001F4F0F731127E02E8C8D8E110CC00FB6FC
:1035500007FCFACFE889F989808185FFF5CFCE0194
:103560000E94531AF1CFEB8DEC0FFD2FF11DE35AA2
:10357000FF4FF0829FB7F8940B8FEA89FB89808117
:103580008062CFCF0F931F93CF93DF938C01D0E056
:10359000C0E0F801EC0FFD1F6491662341F08BEA57
:1035A00093E10E94751A892B11F02196F2CFCE017A
:1035B000DF91CF911F910F910895CF93DF93EC018D
:1035C000888D8823B9F0AA89BB89E889F9898C910B
:1035D00085FD03C0808186FD0DC00FB607FCF7CFC7
:1035E0008C9185FFF2CF808185FFEDCFCE010E94C7
:1035F000531AE9CFDF91CF91089580E090E0892BB5
:1036000029F00E94491A81110E94000080E090E098
:10361000892B29F00E943F1A81110E94000080E04E
:1036200090E0892B49F080E090E0892B29F00E94FE
:10363000000081110E94000080E090E0892B49F099
:1036400080E090E0892B29F00E94000081110C9409
:10365000000008958150823108F05AC0E82FF0E050
:103660008827EA5CF44E8F4F0C940A80561B5A1B35
:10367000481B4E1B521B881B5D1B631B671B6D1B6E
:10368000711B751B7B1B7F1B881B831B891B8D1B61
:10369000809180008F7780938000089580918000D2
:1036A0008F7DF9CF80918000877FF5CF84B58F77AC
:1036B00084BD089584B58F7DFBCF8091B0008F7756
:1036C0008093B00008958091B0008F7DF9CF8091F4
:1036D00090008F77809390000895809190008F7D67
:1036E000F9CF80919000877FF5CF8091A0008F77F0
:1036F0008093A00008958091A0008F7DF9CF8091E4
:10370000A000877FF5CF809120018F7780932001E3
:103710000895809120018F7DF9CF80912001877FCE
:10372000F5CFCF93DF93282F30E0F901E853F44F22
:103730008491F901E758FD4ED491F901E752FD4E0D
:10374000C491CC23A1F081110E942A1BEC2FF0E040
:10375000EE0FFF1FE255F44FA591B491EC91ED23CC
:1037600081E090E009F480E0DF91CF91089580E05E
:1037700090E0FACF1F93CF93DF93282F30E0F90129
:10378000E853F44F8491F901E758FD4ED491F901C3
:10379000E752FD4EC491CC23A9F0162F81110E944F
:1037A0002A1BEC2FF0E0EE0FFF1FE154FD4EA59118
:1037B000B4918FB7F894EC91111108C0D095DE2325
:1037C000DC938FBFDF91CF911F910895DE2BF8CF4F
:1037D0009091B20489130DC0EFE1F3E1E4919FEF02
:1037E0009093B204E230E1F038F4EE2381F0E1305E
:1037F00089F060E00C94BA1BE43049F110F1E53037
:10380000C1F7909173009D7F90937300F2CF109257
:103810006E00EFCF90916F009D7F90936F00E9CF86
:10382000909170009D7F9093700091E09093B00014
:103830009091B100987F94609093B1001092B30082
:10384000D8CF909171009D7F90937100D2CF9091CD
:1038500072009D7F90937200CCCFCF93DF9390E066
:10386000FC01E758FD4E249187529D4EFC01849146
:103870008823C9F090E0880F991FFC01EC56F44FA3
:10388000A591B491FC01E154FD4EC591D491611113
:103890000DC09FB7F8948C91209582238C938881DA
:1038A000282328839FBFDF91CF910895623051F480
:1038B0009FB7F8943C91822F809583238C93E88165
:1038C0002E2BEFCF8FB7F894EC912E2B2C938FBF2C
:1038D000EACF4F925F926F927F928F929F92AF92B8
:1038E000BF92CF92DF92EF92FF920F931F93CF93ED
:1038F000DF9300D01F921F92CDB7DEB78C012A0153
:103900003B018091B2048930C9F08F3F09F492C025
:103910000F900F900F900F900F90DF91CF911F910C
:103920000F91FF90EF90DF90CF90BF90AF909F905E
:103930008F907F906F905F904F900895EFE1F3E14B
:1039400084918D8387FDE4CF61E089E00E942D1C86
:103950009D81992321F08D81823009F0D2C14801E7
:10396000B12CA12C60E072E18AE790E0A5019801FA
:103970000E940D7F29833A834B835C8369017A011E
:1039800091E0C91AD108E108F1088FEFC816D104F7
:10399000E104F10409F00CF483C160E472E48FE007
:1039A00090E0A50198010E940D7F69017A0191E0E4
:1039B000C91AD108E108F1088D81823009F011C1DE
:1039C00082E09FEFC916D104E104F10409F00CF480
:1039D00060C160E970ED83E090E0A50198010E946C
:1039E0000D7F69017A0181E0C81AD108E108F10868
:1039F00083E09FEFC916D104E104F10409F00CF44F
:103A000048C168E478EE81E090E0A50198010E9449
:103A10000D7F69017A0191E0C91AD108E108F10826
:103A20008FEFC816D104E104F10411F00CF019C1B4
:103A300084E02FC189E08093B204EFE1F3E1949137
:103A40009D83892F9F3F09F463CF923009F469C0A9
:103A500060F4992381F1913009F445C087FD58CF76
:103A600061E089E00E942D1C76CF9D81943009F49D
:103A70009AC008F478C0953089F71092200110920E
:103A80002101809121018860809321018091210191
:103A9000816080932101E2EEF2E1E491F0E0EE0F2B
:103AA000FF1FE154FD4E85919491E2E8F2E1E4912B
:103AB000E0938A1249CF14BC15BC84B5826084BDE2
:103AC00085B5816085BDE2EEF2E1E491F0E0EE0FB4
:103AD000FF1FE154FD4E85919491E2E8F2E1E491FB
:103AE000E093911231CF109280001092810080916A
:103AF0008100886080938100809181008160809343
:103B00008100E2EEF2E1E491F0E0EE0FFF1FE154FC
:103B1000FD4E85919491E2E8F2E1E491E0939012F8
:103B200013CF1092B0001092B1008091B00082606B
:103B30008093B0008091B10081608093B100E2EE8B
:103B4000F2E1E491F0E0EE0FFF1FE154FD4E8591AC
:103B5000949190938F1280938E12E2E8F2E1E491B7
:103B6000E0938D12F1CE109290001092910080910E
:103B70009100886080939100809191008160809392
:103B80009100E2EEF2E1E491F0E0EE0FFF1FE1546C
:103B9000FD4E85919491E2E8F2E1E491E0938C127C
:103BA00083E08D83D1CE1092A0001092A10080916D
:103BB000A10088608093A1008091A1008160809322
:103BC000A100E2EEF2E1E491F0E0EE0FFF1FE1541C
:103BD000FD4E85919491E2E8F2E1E491E0938B123D
:103BE000B3CE8FEFC816D104E104F10409F00CF450
:103BF00086C068E478EE81E090E0A50198010E941B
:103C00000D7F69017A0191E0C91AD108E108F10834
:103C10008D81882309F48DC18FEFC816D104E1048A
:103C2000F10409F00CF404CF62E17AE780E090E05F
:103C3000A50194010E940D7F69017A0191E0C91AE2
:103C4000D108E108F1088D81882309F447C18FEF7D
:103C5000C816D104E104F10411F008F048C186E06F
:103C600018C064E274EF80E090E0A50194010E9426
:103C70000D7F69017A0191E0C91AD108E108F108C4
:103C80008FEFC816D104E104F10411F008F041C12E
:103C900085E09091B100987F892B8093B10008C096
:103CA00081E09D819111F5CF95B5987F892B85BDD8
:103CB0002FEF3FEFA901411451046104710409F091
:103CC00049C09D81923009F4E7C00CF0CEC0992321
:103CD00009F4D3C0913009F01BCED0928900C09274
:103CE00088002093A2123093A3124093A412509301
:103CF000A51280916F00826080936F0009CE82E0F0
:103D0000D0CFB12CA12C60E072E18AE790E0A50150
:103D100098010E940D7F69017A0181E0C81AD108DB
:103D2000E108F108C114D10491E0E906F10404F5B9
:103D300091E08D81813069F580918100887F892BA8
:103D4000809381002FEF3FEFA901411451046104DA
:103D5000710419F2D801AA0FBB1FA30192010E949E
:103D60002C7F28EE33E040E050E00E943F7FA9CF57
:103D700068E478EE81E090E0A50198010E940D7F53
:103D800069017A0181E0C81AD108E108F10893E0DD
:103D9000D0CF8D81833001F580919100887F892B70
:103DA000809391002FEF3FEFA9014114510461046A
:103DB000710481F6D0929900C092980020939A12D3
:103DC00030939B1240939C1250939D1280917100EE
:103DD0008260809371009CCD8D81843009F5809143
:103DE000A100887F892B8093A1002FEF3FEFA901CD
:103DF000411451046104710409F0ACCFD092A900C0
:103E0000C092A80020939612309397124093981274
:103E1000509399128091720082608093720078CDE5
:103E20008D81853009F044CF80912101887F892BD5
:103E3000809321012FEF3FEFA90141145104610448
:103E4000710409F087CFD0922901C09228012093F4
:103E50009212309393124093941250939512809142
:103E6000730082608093730053CD8D81843031F272
:103E70000CF4A0CF853039F34BCDC7BC2093A612EC
:103E80003093A7124093A8125093A91280916E000C
:103E9000826080936E003CCDC092B30020939E124E
:103EA00030939F124093A0125093A1128091700002
:103EB0008260809370002CCDC980DA80EB80FC801A
:103EC0009AE0F594E794D794C7949A95D1F791E046
:103ED000C91AD108E108F10885E0E6CE8FEFC816CF
:103EE000D104E104F10409F038F784E0DDCEC980A3
:103EF000DA80EB80FC808AE0F594E794D794C7944D
:103F00008A95D1F791E0C91AD108E108F10887E054
:103F1000C0CE62E17AE780E090E0A50194010E94C2
:103F20000D7F69017A0191E0C91AD108E108F10811
:103F30008ECE83E09FEFC916D104E104F10411F0A5
:103F40000CF072CEB1CE3FB7F8948091350E9091BF
:103F5000360EA091370EB091380E26B5A89B05C03D
:103F60002F3F19F00196A11DB11D3FBFBA2FA92FF8
:103F7000982F8827BC01CD01620F711D811D911DF5
:103F800042E0660F771F881F991F4A95D1F7089561
:103F90008F929F92AF92BF92CF92DF92EF92FF9259
:103FA0006B017C010E94A31F4B015C01C114D10471
:103FB000E104F104B9F00E94A31F681979098A0984
:103FC0009B09683E73408105910580F321E0C21A88
:103FD000D108E108F10888EE880E83E0981EA11C44
:103FE000B11CE4CFFF90EF90DF90CF90BF90AF90E7
:103FF0009F908F9008952FB7F8946091310E709133
:10400000320E8091330E9091340E2FBF089520917F
:10401000E10B260F3327331F21323105ECF42091B9
:10402000070CFC0190E080E0243069F082E0089504
:10403000A091E10B2191AC014154544FA40FB52F35
:10404000B11D2C930196861798F38091E10B680FB0
:104050006093E10B80E0089581E008951092070CD1
:1040600081E08093090C1092080C61E084E10E94C9
:10407000BA1B61E085E10E94BA1BE9EBF0E08081A8
:104080008E7F808380818D7F808388E48093B800D9
:1040900085E48093BC000895CF93DF9391E09093E3
:1040A000BE0B8823B9F0C091B800D091BA008091BE
:1040B000BC008A7B8093BC0060E084E10E94BA1B54
:1040C00060E085E10E94BA1B0E942E20D093BA00C6
:1040D000C093B800DF91CF91089508950895089591
:1040E000E091B60B8091B50BE81730F4F0E0EB5699
:1040F000F44F808190E008958FEF9FEF08959091A5
:10410000B60B8091B50B2FEF3FEF981748F4E92FCE
:10411000F0E0EB56F44F208130E09F5F9093B60BB8
:10412000C90108958091B50B9091B60B891B990B2D
:104130000895CF92DF92EF92FF920F931F93CF9348
:10414000DF937C01CB018A012091940B222389F01B
:10415000EB016B01C40ED51ECC15DD0569F069912C
:10416000D701ED91FC910190F081E02DC7011995E7
:10417000F3CF642F0E940720C801DF91CF911F91D8
:104180000F91FF90EF90DF90CF900895CF93DF9342
:104190001F92CDB7DEB769832091940B2223F9F0EB
:1041A0002091B70B203258F021E030E0FC0133833E
:1041B000228390E080E00F90DF91CF91089580916D
:1041C000B80BE82FF0E0EC58F44F998190838F5FA3
:1041D0008093B80B8093B70B81E090E0ECCF61E067
:1041E000CE0101960E940720F7CFCF93DF93EC0119
:1041F000E981FA81908181819CBD8DBDE981FA813F
:1042000060E082810E94BA1B81E08B83DF91CF91B5
:1042100008958EBD0DB407FEFDCF08958FEF8EBDBE
:104220000DB407FEFDCF8EB50895CF93DF93FC014B
:104230002381222361F0EC010180F281E02D61E015
:1042400082810E94BA1B8FEF0E9409211B82DF919D
:10425000CF9108950F931F93CF93DF938C01862FF7
:10426000EA010E94092188818EBD8981FE01329672
:10427000DE5F0DB407FEFDCF8EBDEC17FD0711F01C
:104280008191F7CF0DB407FEFDCF8FEF0E9409217A
:104290008FEF0E9409210E940E21F80184838F7103
:1042A000853059F087E58083C8010E94152180E0A0
:1042B000DF91CF911F910F91089581E0F9CF0E9476
:1042C000FB1FCB010895EF92FF920F931F93CF93A3
:1042D000DF93EC018B010E945F217C010E940E2183
:1042E0008C838F3FA1F40E945F218E199F098D322C
:1042F0009140A0F385E58883CE010E94152180E0DE
:10430000DF91CF911F910F91FF90EF9008958E3F15
:1043100011F080E5F0CF8FEF8EBDF801D801A150EC
:10432000BE4F9FEF0DB407FEFDCF8EB59EBD8193AE
:10433000AE17BF07B9F70DB407FEFDCF8EB58C934E
:104340001C820E940E210E940E2181E0D9CFCF93C2
:10435000DF930E945F21EC010E940E218F3F59F0F4
:104360000E945F218C1B9D0B89359240A8F380E051
:10437000DF91CF91089581E0FBCFDF92EF92FF9222
:104380000F931F93CF93DF938C01C62FD22FF32E61
:10439000E42ED52EFC018381811103C0C8010E9447
:1043A000F5200E94A7218C2F80640E9409218D2D69
:1043B0000E9409218E2D0E9409218F2D0E94092122
:1043C0008D2F0E94092187E8C11101C085E90E9453
:1043D0000921CC3011F40E940E21C0E00E940E2170
:1043E000F801848387FF04C0CF3F11F0CF5FF6CF81
:1043F000DF91CF911F910F91FF90EF90DF90089583
:104400000F931F93CF93DF93EC0189018D8183304C
:1044100039F089E0440F551F661F771F8A95D1F741
:104420009A01AB0168E1CE010E94BD21882339F0D9
:1044300082E38883CE010E94152110E01FC0A801ED
:104440006EEFCE010E942A218823A1F30E94A721AA
:10445000182F8AE5112369F320E030E0A9016DE00F
:10446000CE010E94BD21882311F089E2E2CF0E9493
:104470000E218111FACFCE010E941521812FDF91EB
:10448000CF911F910F9108950F931F93CF93DF93B7
:10449000EC0189018D81833039F089E0440F551F8B
:1044A000661F771F8A95D1F79A01AB0161E1CE01B2
:1044B0000E94BD21882339F080E38883CE010E94C9
:1044C000152110E00AC0B801CE010E946321182F07
:1044D0008823A1F3CE010E941521812FDF91CF9176
:1044E0001F910F910895EF92FF921F93CF93DF9347
:1044F000FC01208111E020FF14C0EC017C01F7E0F9
:10450000EF0EF11C4B815C816D817E81E981FA8126
:104510009701808191810E940022182F811108C08B
:1045200010E0812FDF91CF911F91FF90EF900895C0
:10453000888181FD04C088818E7F8883F2CFE981E4
:10454000FA814B815C816D817E8184859585A6850C
:10455000B785480F591F6A1F7B1F97018081918182
:104560000E9400228111E7CFDBCFCF92DF92EF9242
:10457000FF921F93CF93DF93EC016A017B01122F0F
:104580008B819C81AD81BE818C159D05AE05BF05DB
:10459000B1F0CE010E94732281110AC090E080E048
:1045A000DF91CF911F91FF90EF90DF90CF90089512
:1045B00012FF0CC01882CB82DC82ED82FE82137067
:1045C0008881182B1883CE010796EACFE981FA81FA
:1045D0009E01295F3F4FB701A601808191810E9412
:1045E00044228111E7CFDACF8F929F92AF92BF9290
:1045F000CF92DF92EF92FF920F931F931092551973
:1046000041E050E060E070E0409358195093591930
:1046100060935A1970935B1920E539E13093721950
:1046200020937119109270194FEF5FEFBA01409308
:1046300073195093741960937519709376198823C0
:1046400009F450C020E040E050E0BA0180E799E171
:104650000E94B522009761F480E01F910F91FF90B6
:10466000EF90DF90CF90BF90AF909F908F90089584
:10467000FC01E254FE4F20812F7771F78A539E4F41
:10468000FC01C080D180E280F380C114D104E10438
:10469000F10411F320E0B701A60180E799E10E943F
:1046A000B522FC01892BC1F2838594858115924046
:1046B00099F68089823081F686859785892B61F20B
:1046C0002585209352198FEF820F8093531980E034
:1046D00091E0291769F08F5F893041F488E0809379
:1046E0005419BACFC12CD12C7601D4CF990FF1CF68
:1046F000809354194689578970E060E0411551054F
:1047000021F444A155A166A177A140935C1950936F
:104710005D1960935E1970935F1926853785460190
:104720005701820E931EA11CB11C809264199092B5
:104730006519A0926619B092671921893289309360
:10474000571920935619440F551F661F771F480DA0
:10475000591D6A1D7B1D40936C1950936D19609310
:104760006E1970936F1921893289A5E0220F331FCA
:10477000AA95E1F721503E4F232F33272695420F6C
:10478000531F611D711D409360195093611960930F
:104790006219709363190389148930E020E00115D0
:1047A000110521F400A111A122A133A1C41AD50A37
:1047B000E60AF70AC00ED11EE21EF31E04C0F694EC
:1047C000E794D794C7948A95D2F7D701C60101968A
:1047D000A11DB11D8093681990936919A0936A195E
:1047E000B0936B1985EFC8168FE0D806E104F10489
:1047F00020F48CE0809355192FCF80E125EFC2166D
:104800002FEFD206E104F10468F084A595A5A6A5D2
:10481000B7A580936C1990936D19A0936E19B093FE
:104820006F1980E28093551981E017CF8F929F9284
:10483000AF92BF92CF92DF92EF92FF920F931F93AE
:10484000423051056105710560F480E01F910F91C0
:10485000FF90EF90DF90CF90BF90AF909F908F90A0
:104860000895FC01C08CD18CE28CF38CC416D50663
:10487000E606F70650F3480159016A017B0185817C
:10488000803241F584899589A689B78917E07695A4
:104890006795579547951A95D1F7480F591F6A1F85
:1048A0007B1F23E0CF0180960E94B522009769F21A
:1048B000E894C7F8DD24EE24FF24CC0CDD1CCC0CDE
:1048C000DD1C8C0D9D1DFC0180829182A282B38231
:1048D00081E0BCCF803109F0B8CF44895589668921
:1048E00077894D0D511D611D711D23E0CF0180960B
:1048F0000E94B522009709F4A8CFDD24EE24FF24FE
:10490000CC0CDD1CC80ED91EF60111830083E0CF4C
:10491000CF92DF92EF92FF920F931F93CF93DF938B
:10492000423051056105710550F48FEFDF91CF9151
:104930001F910F91FF90EF90DF90CF900895FC01B1
:10494000C08CD18CE28CF38CC416D506E606F70633
:1049500060F389016A017B01EC0185818032B9F540
:1049600084899589A689B789E7E0769567955795F3
:104970004795EA95D1F7480F591F6A1F7B1F22E020
:10498000CE0180960E94B522009779F2E894C7F88C
:10499000DD24EE24FF24CC0CDD1CCC0CDD1C8C0DA6
:1049A0009D1DFC0180819181A281B381BF70488DE2
:1049B000598D6A8D7B8D481759076A077B0738F137
:1049C000F80180839183A283B38381E0AFCF8031EC
:1049D00009F0ABCF44895589668977894D0D511D02
:1049E000611D711D22E0CF0180960E94B5220097C3
:1049F00009F49BCFDD24EE24FF24CC0CDD1CC80E73
:104A0000D91EF60180819181B0E0A0E0D0CF80E096
:104A10008DCF9F92AF92BF92CF92DF92EF92FF9293
:104A20000F931F93CF93DF9300D01F92CDB7DEB7C4
:104A30005C016A017B019E012F5F3F4FB701A60118
:104A4000C5010E948824982E87FD2EC000E010E04A
:104A50009801B701A601C5010E941624882321F1FF
:104A6000F5014085518562857385C416D506E60635
:104A7000F70620F4C086D186E286F386C980DA8004
:104A8000EB80FC809110D7CF0F900F900F900F907C
:104A9000DF91CF911F910F91FF90EF90DF90CF901A
:104AA000BF90AF909F90089580E0EECFFC019C01F5
:104AB000255F3F4F80E080FB879587F99191890FB3
:104AC0002E173F07C1F708954F925F926F927F9222
:104AD0008F929F92AF92BF92CF92DF92EF92FF920E
:104AE0000F931F93CF93DF93EC014A015B014C843A
:104AF0005D846E847F84A881AA2309F486C04889D6
:104B000059896A897B89481559056A057B0569F0C9
:104B100081149104A104B10451F41C861D861E86E3
:104B20001F86888A998AAA8ABB8A81E073C0A3FFFC
:104B300059C0088D198D2A8D3B8D081519052A0538
:104B40003B0508F462C0EE81FF81848190E0099604
:104B50008A019B010150110921093109082E04C065
:104B600036952795179507950A94D2F77501640134
:104B7000B1E0CB1AD108E108F10804C0F694E7943B
:104B8000D794C7948A95D2F7C016D106E206F306E9
:104B900028F0452B462B472B09F052C0A6FF4BC0EF
:104BA000848D958DA68DB78D8C879D87AE87BF87A9
:104BB0008E01045F1F4FC114D104E104F10409F414
:104BC000B0CF4C855D856E857F8598018E819F81F4
:104BD0000E94882491E0C91AD108E108F10818164A
:104BE00054F313C0A5FFAFCFEE81FF81868197817B
:104BF00025E0880F991F2A95E1F7B0E0A0E088151D
:104C00009905AA05BB0508F08CCF4C865D866E869B
:104C10007F8680E0DF91CF911F910F91FF90EF9001
:104C2000DF90CF90BF90AF909F908F907F906F90CC
:104C30005F904F9008958C8D9D8DAE8DBF8DB4CFBC
:104C4000C01AD10AE20AF30AB3CFCF93DF93DC0193
:104C5000FC0190E048E080E05EE221912032D1F05A
:104C6000983031F4EB01C80FD11D58838F5F40E1BC
:104C7000EF01219728813FEB320F3A3130F41C9637
:104C80003C911C97342309F0205EEB01C80FD11D25
:104C900028838F5F9F5F9B3001F7680F711DFB01B9
:104CA0001082DF91CF910895CF93DF93EC01262FEF
:104CB0004C895D896E897F898E819F8180960E9453
:104CC000B522009771F02C813D812F70332745E08C
:104CD000220F331F4A95E1F7820F931FDF91CF9187
:104CE000089590E080E0FACFCF93DF93FC0120811C
:104CF000211104C081E0DF91CF910895EC01828100
:104D000087FF27C061E0CF010E945426FC01892B58
:104D100029F489818160898380E0EDCF8081853E9F
:104D2000C1F3888183FF08C0888D998DAA8DBB8DC2
:104D3000848F958FA68FB78F8C8D9D8D938F828F4B
:104D40008C8D9D8DAE8DBF8DB58BA48B8A818F7719
:104D50008A838E819F8180960E9473228823C9F264
:104D6000C9CFCF93DF93EC010E9474261882DF91A4
:104D7000CF9108953F924F925F926F927F928F9260
:104D80009F92AF92BF92CF92DF92EF92FF920F93DA
:104D90001F93CF93DF9300D000D01F921F92CDB707
:104DA000DEB74C01DC0112968C9112978068129646
:104DB0008C9312971696AD90BC9017971C964D90B9
:104DC0005D906D907C901F974114510461047104B3
:104DD00009F05AC0D50118968D919D910D90BC9106
:104DE000A02D8D839E83AF83B887CD80DE80EF803A
:104DF000F884BFEFCB1ADB0AEB0AFB0AF501808DC2
:104E0000918DA28DB38D8C159D05AE05BF0528F43F
:104E100082E0C82ED12CE12CF12C9E012F5F3F4F58
:104E2000B701A601C5010E94882487FD13C088230D
:104E300041F089819A81AB81BC81892B8A2B8B2B94
:104E400041F18D819E81AF81B885C816D906EA06E9
:104E5000FB0679F6312C832D28960FB6F894DEBF29
:104E60000FBECDBFDF91CF911F910F91FF90EF90BB
:104E7000DF90CF90BF90AF909F908F907F906F907A
:104E80005F904F903F9008954D825E826F8278864A
:104E9000ACCF0FEF1FEF2FEF3FE0B701A601C50129
:104EA0000E941624382E8823A9F24114510461046B
:104EB000710479F097018601B301A201C5010E9436
:104EC0001624882339F2F401C486D586E686F7864F
:104ED000C2CFD5011896CD92DD92ED92FC921B9730
:104EE000F2CFDC011A96ED91FC9130E020E01994AC
:104EF000DC011496ED91FC9130E020E040E060E1AF
:104F00001994DC011696ED91FC9130E020E040E030
:104F100069E11994DC011696ED91FC9130E020E0F6
:104F200040E068E119949A01DC011696ED91FC913C
:104F3000462F67E11994EF92FF920F931F93CF933F
:104F4000DF931F92CDB7DEB77C018B01D8016C9146
:104F5000673129F150F46531A0F40F90DF91CF91C2
:104F60001F910F91FF90EF9008956A3118F16E3FF5
:104F7000A1F7F8014181498369E2C7010E947127C5
:104F80000BC0F80141814983D7011696ED91FC9140
:104F900030E020E0C70119950E5F1F4FD7CFF80111
:104FA00081818983AE014F5F5F4F61E0C7010E943D
:104FB0009327F2CF0F5F1F4FD7011696ED91FC910B
:104FC00030E020E040E0C7011995C0CF462FDC015A
:104FD0001696ED91FC9130E020E066E11994462FA1
:104FE000DC011696ED91FC9130E020E065E119942A
:104FF000EF92FF920F931F93CF93DF93EC01042F57
:1050000079016D3009F446C050F46B30C9F1693054
:1050100009F49FC06A3009F465C080E046C06E3074
:1050200009F452C06F3099F70E948A27F701138163
:10503000110F110F110F6C89160F60E4CE010E9441
:10504000EF27612F62956F706061CE010E94EF279C
:10505000612F6F70CE010E94E627F7016481606BBB
:10506000CE010E94E627F701408151816281660FDF
:10507000660F660FCE010E9493270150A1F72EC044
:105080006DE275E0442311F068E275E0CE010E9404
:105090009B270AC0411110C061E275E00E949B2766
:1050A000E881F98182898C8B81E0DF91CF911F911A
:1050B0000F91FF90EF9008956AE175E00E949B27A1
:1050C000E881F9818389EFCF0E948A2761E8CE01C8
:1050D0000E94EF27602FCE010E94E627CE010E949A
:1050E0008127E2CFEA85FB8530E020E040E068E2FE
:1050F000CE011995EE81FF8130E020E040E064E1CF
:10510000CE01199541E06BE4CE010E947127E88140
:10511000F981448169E2CE010E94712740E06BE48D
:10512000CE010E947127E881F981448169E2CE01B4
:105130000E94712741E06BE4CE010E947127E88153
:10514000F981458169E2CE010E94712762E375E031
:105150009DCF87E695E0998388831C8AA5CFDC01E3
:105160001896ED91FC9130E020E040E069E119945F
:10517000DC011896ED91FC9130E020E040E068E120
:105180001994CF93DF931F92CDB7DEB76983BE0129
:105190006F5F7F4F0E94B0190F90DF91CF910895FC
:1051A000EF92FF921F93CF93DF93EC01162F7A01BA
:1051B0000E94B82860E4CE010E94C128E885F985E4
:1051C0009701412F67E1CE011995CE01DF91CF9173
:1051D0001F91FF90EF900C94AF28EF92FF921F93D6
:1051E000CF93DF93EC01142F7901663181F138F40C
:1051F000643109F44BC0653179F080E022C0683138
:10520000C9F150F16931C9F78091730B882391F18D
:10521000CE010E94AF282EC08091730B882319F015
:10522000CE010E94AF28CE010E94B82860E0CE01D6
:105230000E94C128612FCE010E94C12881E0809385
:10524000730BDF91CF911F91FF90EF900895642F22
:105250000E94C12881E0F5CF8091730B882319F05B
:10526000CE010E94AF28A701193138F4612FCE0179
:105270000E94D0281092730BEDCF68E1CE010E94FE
:10528000D028185188E1E80EF11CEDCF8E898F3FB0
:1052900011F488E78E8BE885F9859701412F64E149
:1052A000CE01DF91CF911F91FF90EF9019940F9352
:1052B000DC01FC01EE5BFF4F9081941B492F31977D
:1052C0009081961B692F01110EC04150621BDE9622
:1052D0008C91DE97481BD496ED91FC91D597CD012A
:1052E00019950F910895013091F76150421BEFCF4E
:1052F000CF93DF93FC01A081B18182AD982F990FEC
:10530000990F990F95AF50969C915097903208F055
:105310009FE1990F990F990F94AF23AD922F990F99
:10532000990F990F96AF51963C915197682F620F44
:105330007727771F3617170614F4832F821B97AF32
:10534000EF01C05CDF4F880F880F880F890F8883BB
:10535000219680EF888354968D919C915597813F3B
:10536000910508F48883EE5BFF4F56968C918083FD
:10537000DF91CF9108950F93FC01EB5BFF4F3081DC
:1053800031965081451730F4301738F0041728F063
:1053900080E013C03017D0F3FBCFFC01ED5BFF4F73
:1053A00030818C5B9F4FFC018081681740F481E065
:1053B000321718F081E0261758F70F910895321729
:1053C000C8F3E6CF3F924F925F926F927F928F9297
:1053D0009F92AF92BF92CF92DF92EF92FF920F9384
:1053E0001F93CF93DF93EC014C0183E4880E911C53
:1053F000F4011082329730805E01F4E4AF0EB11CEC
:10540000F50130827E01F5E4EF0EF11CF701108208
:105410003397108132978081181728F0F12FF81BED
:105420008F2FF70180838FAD181B6E01F6E4CF0E2E
:10543000D11CF601108334967080329750803196DB
:10544000608032974080072D252D462D642DCE019A
:105450000E94BB29CD58DF4F811113C01882DF9104
:10546000CF911F910F91FF90EF90DF90CF90BF9061
:10547000AF909F908F907F906F905F904F903F90F4
:10548000089581E08883442011F0F4014082531490
:1054900010F4F5015082F7018081861508F46082CE
:1054A0007116E8F6F6017082DACF0F93DC01802FD7
:1054B000FD01ED58FF4F90819923E9F12223D9F1A5
:1054C000223020F0023079F56F5F621B082F0170E7
:1054D000FD0180FD32C0EB5BFF4F8081481758F122
:1054E00031968081481738F53297908131978081C5
:1054F000260F2617F0F46917D8F42FEF290F82171B
:10550000D0F4681708F4682F291708F4922F961B17
:10551000D696ED91FC91D7970480F581E02D292F47
:10552000CD01199508C0033089F64F5F421BCECFDD
:10553000682F691720F30F910895ED5BFF4F80816D
:105540006817C8F3319680816817A8F73296908162
:1055500031978081240F241778F4491760F42FEFD6
:10556000290F821740F7481708F4482F291708F425
:10557000922F941BCDCF482F4917E8F6F2CF5F92B8
:105580006F927F928F929F92AF92BF92CF92DF9253
:10559000EF92FF920F931F93CF93DF93A82EC62F06
:1055A000D42F6801B62EB20E742E780E0B2D272D37
:1055B000462F682F84EA9BE10E94BB298823B1F122
:1055C000D95FD695D695D695ED2EF12C55245394CA
:1055D0005C0E052D272D4C2F6A2D84EA9BE10E943D
:1055E000BB298823F1F060901D1CDA2D460111E0E3
:1055F000F4018491812351F160921D1C00E021E0AF
:105600004C2F6D2F84EA9BE10E94552ADF5F110F1A
:1056100021F4FFEF8F1A9F0A11E07D12E9CF60920B
:105620001D1CCE0CDF1CC52DB510D0CFDF91CF9146
:105630001F910F91FF90EF90DF90CF90BF90AF90B0
:105640009F908F907F906F905F90089580911C1C29
:105650008111DCCF81E0611080E080931D1CCECFF2
:105660000F93242F01E0462F682F84EA9BE10E94CC
:10567000552A0F910895FF920F931F93CF93DF93B5
:10568000182FC62FF42ED62FD20F282F240F0D2F10
:10569000462F682F84EA9BE10E94BB29882359F09A
:1056A00000E02F2D4C2F612F84EA9BE10E94552AA8
:1056B000CF5FDC13F5CFDF91CF911F910F91FF905A
:1056C0000895213039F020F0223031F0840F089510
:1056D000860F0895841B0895861B0895213039F0A4
:1056E00020F0223031F0861B0895840F0895860F34
:1056F0000895841B08955F926F927F928F929F927C
:10570000AF92BF92CF92DF92EF92FF920F931F93CF
:10571000CF93DF935C01162F642EEC01C15BDF4F4A
:10572000DC80ED804C0189E7880E911CFE80FD181D
:10573000C12EF11608F4CF2C5B800C85202F4E2D46
:105740006D2D8A810E94612B782E202F4E2D6D2D7C
:10575000852D0E946E2B482F662071F08A85F401FA
:1057600080832C2D672DC5010E94552A1F1548F0F6
:105770001F19E394D12CDACF89858111F7CF8B855E
:10578000EECF1D0D1C83ED82DF91CF911F910F9104
:10579000FF90EF90DF90CF90BF90AF909F908F9051
:1057A0007F906F905F900895DC0118964C91189748
:1057B000ED91FC911197249130E0042E02C03595B3
:1057C00027950A94E2F7842F860F883068F0319687
:1057D0001196FC93EE93E49198E0941B01C0EE0FB8
:1057E0009A95EAF72E2B885018968C938FEF9FEF9F
:1057F00001C0880F6A95EAF78095822308950F9378
:105800001F93CF93DF938C01EC01C15BDF4F798352
:1058100068831886FC01E05AFF4F6081CE010E9428
:10582000D42B8E83F801EF59FF4F6081CE010E9487
:10583000D42B8F83F801E758FF4F90819A8781E03E
:10584000911180E08B87DF91CF911F910F91089587
:10585000CF93C62F0E94D42BC15021E030E001C06D
:10586000220FCA95EAF7821BCF910895FC01E60F3B
:10587000F11D849190E0982F88273196E4918E0F46
:10588000911D0895CF93DF932091EF1B3091F01B72
:105890002817390709F490C0EC019093F01B80930E
:1058A000EF1BFC0184918093001C3196E491E093FE
:1058B000011CFE013296E491E093021CFE01339636
:1058C000E491E093031CFE013496E491E093041C00
:1058D000FE013596E491E093051CFE013696E491B5
:1058E000E093061CFE013796E491E093071CFE014D
:1058F0003896E491E093081CFE013996E491E09318
:10590000091CFE013A96E491E0930A1CFE013B96C5
:10591000E491E0930B1CFE013C96E491E0930C1C97
:10592000FE013D96E491E0930D1CFE013E96E4914C
:10593000E0930E1CFE013F96E491E0930F1CFE01E4
:105940007096E491E093101C61E1CE010E94362C28
:105950009093121C8093111C63E1CE010E94362C9F
:105960009093141C8093131C65E1CE010E94362C89
:105970009093161C8093151C8091EF1B9091F01B47
:10598000892BD1F080910D1C8093191C40910E1C25
:1059900040931A1C9091181C992371F0913079F45E
:1059A00090910F1C891714F49093191C8091101C6E
:1059B000841714F480931A1CDF91CF9108953091CD
:1059C0000A1C20910C1C082E000C990B622F022E31
:1059D000000C770B630F711D37FD7A9586179707BB
:1059E0001CF4320F3093191C241734F720931A1C1F
:1059F000E3CFEF92FF920F931F93CF93DF93FC01BE
:105A0000E55BFF4F20813181295E3F4F6F3F71057C
:105A100009F048F561367105D8F081599F4FFC01B6
:105A200080819181280F391FC9010196FC014491A1
:105A3000442309F447C0F90144914617170671F44D
:105A40000196DF91CF911F910F91FF90EF900895F4
:105A50006134710548F383599F4FE1CFFC01849174
:105A6000280F311DE1CF8B01FC01EF58FF4FC081A2
:105A7000D181C20FD31F7E0160E0C7010E94362C86
:105A8000C80FD91F62E0C7010E94362CF4E0EF0E68
:105A9000F11C8017910780F3FE01849190E0982F0C
:105AA00088273196E4918E2B009761F0081719072B
:105AB00019F4CE010396C5CFFE013296E491CE0FC4
:105AC000D11DEACF90E080E0BCCF0F931F93CF931E
:105AD000DF931092F91B1092BC1B8C01D0E0C0E048
